:020000040000FA
:0400000010EF07F006
:08000800056ED8CF06F0E0CF31
:1000100007F00001E9CF0DF0EACF08F0E1CF09F0D9
:10002000E2CF0AF0D9CF0BF0DACF0CF0F3CF14F017
:10003000F4CF15F0FACF16F000C00FF001C010F0A9
:1000400002C011F003C012F004C013F0F2A82CEFAC
:1000500000F0F2B2A3EF00F0F2A632EF00F0F2B03F
:10006000BBEF00F00FC000F010C001F011C002F0B3
:1000700012C003F013C004F00E8E0DC0E9FF08C0DB
:10008000EAFF09C0E1FF0AC0E2FF0BC0D9FF0CC0C4
:10009000DAFF14C0F3FF15C0F4FF16C0FAFF0550D5
:1000A00007C0E0FF06C0D8FF1000F76ABA0FF66E6F
:1000B000000EF7220900F55012000A0D496E746512
:1000C0007272757063696F6E20696E740000F2CF92
:1000D0000EF0F29EF76AE80FF66E000EF7220900A6
:1000E000F5500EBEF28E12003C696E6963696F2096
:1000F0006E7565766F3D31206D6F646F3D256420B0
:1001000076656C6F63696461643D256C753E2000A3
:10011000F2CF0EF0F29EF76A2A0FF66E010EF7226A
:100120000900F5500EBEF28E12003C4352433E20B1
:100130002575203C2F4352433E203C2F696E696356
:10014000696F3E0A0000E76BE751AFDFE72B006EF7
:1001500000509EA8FED7AD6E120EE75DF5E1030ECE
:10016000E86F2E0E9EA8FED7AD6EE82FFAD7F2925A
:10017000F29232EF00F02550036E2450242AD8B4B6
:10018000252AE76F1F50E725E96E20500320EA6E0D
:1001900081CFEFFFF290F29032EF00F0FF0E956EFC
:1001A000F298F296C00EF21230EF07F0DDC003F0C5
:1001B000DCC0E9FFDDC0EAFFEF5205E1DAC001F083
:1001C000DBC002F05DD0DBC003F0DAC0E9FFDBC0CA
:1001D000EAFFEF5252E0DBC0DFF0DAC0DEF0DDC054
:1001E000E1F0DCC0E0F0E1C003F0E0C0E9FFE1C015
:1001F000EAFFEF5216E0DEC0E9FFDFC0EAFFEFCF13
:10020000E2F0E1C003F0E0C0E9FFE1C0EAFFEF5037
:10021000E25D07E1DE2BD8B4DF2BE02BD8B4E12B75
:10022000E2D7E1C003F0E0C0E9FFE1C0EAFFEF522E
:1002300005E1DAC001F0DBC002F022D0DA2BD8B43D
:10024000DB2BDBC003F0DAC0E9FFDBC0EAFFEF52D3
:1002500013E0DAC0E9FFDBC0EAFFEFCFE3F0DDC077
:1002600003F0DCC0E9FFDDC0EAFFEF50E35D04E02E
:10027000DA2BD8B4DB2BE5D7A6D7000E016E026EC1
:10028000000CDDC0E2F0DCC0E1F0E05324E0DFC0B0
:1002900003F0DEC0E9FFDFC0EAFFEF521CE0E2C07E
:1002A00003F0E151E12BD8B4E22BE36F03C0E4F09B
:1002B000DFC003F0DE51DE2BD8B4DF2BE96E03C0C4
:1002C000EAFFEFCFE5F0E4C0EAFFE3C0E9FFE5C0F5
:1002D000EFFFE007DAD7E0530CE0E2C003F0E151B2
:1002E000E12BD8B4E22BE96E03C0EAFFEF6AE00726
:1002F000F2D7DCC001F0DDC002F0000C006A016A38
:10030000E151D890E2B1002600320132E2B300267A
:1003100000320132E2B5002600320132E2B7002697
:1003200000320132E2B9002600320132E2BB00267F
:1003300000320132E2BD002600320132E2BF002667
:100340000032013210EF02F0DF6BDD6B0A0EDE6F60
:10035000DC6BDA51DB1103E1000E016EC1D0DF511D
:10036000DF2B036ADA25E96EDB510320EA6EEFCF5B
:10037000E0F0E0512D080DE1010EDD6FDF51DF2BC4
:10038000036ADA25E96EDB510320EA6EEFCFE0F075
:100390000DD0E0512B080AE1DF51DF2B036ADA258B
:1003A000E96EDB510320EA6EEFCFE0F0E0512F0859
:1003B000D8B08ED0E0513908D8A08AD0E0513008AA
:1003C00021E1036ADF51DA25E96EDB510320EA6E91
:1003D000EF5078080AE0036ADF51DA25E96EDB5155
:1003E0000320EA6EEF5058080DE1100EDE6FDF2B90
:1003F000DF51DF2B036ADA25E96EDB510320EA6E59
:10040000EFCFE0F0DE510A081BE1E0512F0817E2C0
:10041000E051390814E30A0EE16FDCC0E2F06ED758
:10042000300EE05D0124DC6FDF51DF2B036ADA253B
:10043000E96EDB510320EA6EEFCFE0F0E6D748D05B
:10044000DE51100845E1E051600806E2E0517A080B
:1004500003E3E051DF0B01D0E051E06FE0512F08E2
:1004600003E2E051390806E2E051400831E2E05190
:1004700046082EE3E0512F080CE2E051390809E369
:10048000DC39E16FF00EE117300EE05DE125DC6F45
:1004900009D0DC39E16FF00EE117410EE05D0A0F83
:1004A000E125DC6FDF51DF2B036ADA25E96EDB51D2
:1004B0000320EA6EEFCFE0F0E051600806E2E05181
:1004C0007A0803E3E051DF0B01D0E051E06FC6D7BB
:1004D000DD2D04D0DE510A0801E1DC6DDCC001F045
:1004E000000CE251E403F3CF01F0F4CF00F0E50398
:1004F000F3500026E351E403F3500020026EF2EFC4
:1005000002F0E06BDE6B0A0EDF6FDD6BDC6BDA5145
:10051000DB1104E1000E016E026EE2D0E051E02B2F
:10052000036ADA25E96EDB510320EA6EEFCFE1F0D2
:10053000E1512D080DE1010EDE6FE051E02B036A61
:10054000DA25E96EDB510320EA6EEFCFE1F00DD042
:10055000E1512B080AE1E051E02B036ADA25E96E4C
:10056000DB510320EA6EEFCFE1F0E1512F08D8B064
:10057000A9D0E1513908D8A0A5D0E151300821E136
:10058000036AE051DA25E96EDB510320EA6EEF5091
:1005900078080AE0036AE051DA25E96EDB510320AE
:1005A000EA6EEF5058080DE1100EDF6FE02BE051BE
:1005B000E02B036ADA25E96EDB510320EA6EEFCF08
:1005C000E1F0DF510A0821E1E1512F081DE2E1517C
:1005D00039081AE3E36B0A0EE26FDDC0E5F0DCC018
:1005E000E4F07FD7300EE15D0124DC6F000E0220C5
:1005F000DD6FE051E02B036ADA25E96EDB51032061
:10060000EA6EEFCFE1F0E0D75DD0DF5110085AE19C
:10061000E151600806E2E1517A0803E3E151DF0BA2
:1006200001D0E151E16FE1512F0803E2E1513908B6
:1006300006E2E151400846E2E151460843E3E15158
:100640002F0817E2E151390814E3DC35E26FDD359C
:10065000E36FE237E337E237E337E237E337F00EB1
:10066000E217300EE15DE225DC6F000EE321DD6F65
:1006700014D0DC35E26FDD35E36FE237E337E23784
:10068000E337E237E337F00EE217410EE15D0A0F80
:10069000E225DC6F000EE321DD6FE051E02B036A01
:1006A000DA25E96EDB510320EA6EEF50E16F600856
:1006B00006E2E1517A0803E3E151DF0B01D0E15199
:1006C000E16FB1D7DF510A0807E1DE2D05D0DC1F4D
:1006D000DD1FDC2BD8B4DD2BDCC001F0DDC002F067
:1006E000ACEF04F03C0E8E6F690E8F6F6E0E906F44
:1006F000690E916F630E926F690E936F6F0E946F18
:10070000956B3E0E966F200E976F3C0E986F2F0ED6
:10071000996F690E9A6F6E0E9B6F690E9C6F630ED8
:100720009D6F690E9E6F6F0E9F6F3E0EA06FA16B47
:100730006E0EA26F750EA36F650EA46F760EA56F79
:100740006F0EA66F3D0EA76FA86B6D0EA96F6F0E93
:10075000AA6F640EAB6F6F0EAC6F3D0EAD6FAE6BDC
:10076000760EAF6F650EB06F6C0EB16F6F0EB26F1D
:10077000630EB36F690EB46F640EB56F610EB66F22
:10078000640EB76F3D0EB86FB96B8DC0DBF08CC0D7
:10079000DAF0DD6B8E0EDC6F09DD02C0D1F001C036
:1007A000D0F08DC0DBF08CC0DAF0DD6BA20EDC6F18
:1007B000FDDC02C0D5F001C0D4F08DC0DBF08CC0F0
:1007C000DAF0DD6B960EDC6FF1DC02C0D3F001C015
:1007D000D2F08DC0DBF08CC0DAF0DD6BA90EDC6FDF
:1007E000E5DC02C0D7F001C0D6F08DC0DBF08CC0D4
:1007F000DAF0DD6BAF0EDC6FD9DC02C0D9F001C0DE
:10080000D8F0D05302E1D15310E0D45302E1D553D4
:100810000CE0D25302E1D35308E0D65302E1D753A0
:1008200004E0D85305E1D95303E1000E016E9AD0DC
:10083000CC6BCC5105081AE3036ACC51BA0FE96EB0
:10084000000E0320EA6EEF6A036ACC51C00FE96E16
:10085000000E0320EA6EEF6A036ACC51C60FE96E00
:10086000000E0320EA6EEF6ACC2BE3D7060ED425E8
:10087000DA6F000ED521DB6F010EDA25016E000E56
:10088000DB21036E0150D65D006E0350D75900C0C6
:10089000CDF0CE6F060ED425DA6F000ED521DB6FBA
:1008A000DD6BBA0EDC6FDBC0DFF0DAC0DEF0CDC08E
:1008B000E0F0E7DC050ED625DA6F000ED721DB6FFE
:1008C000010EDA25016E000EDB21036E0150D85DAA
:1008D000006E0350D9590050CE6BCD6F050ED62552
:1008E000DA6F000ED721DB6FDD6BC00EDC6FDBC073
:1008F000DFF0DAC0DEF0CDC0E0F0C3DC0A0ED825B0
:10090000016E000ED921036E0150D25D006E0350BE
:10091000D3590050CE6BCD6F0A0ED825DA6F000E7A
:10092000D921DB6FDD6BC60EDC6FDBC0DFF0DAC018
:10093000DEF0CDC0E0F0A5DCDB6BBA0EDA6F04DDD3
:1009400001C0CFF0DB6BC00EDA6FFEDC01C021F01E
:10095000DB6BC60EDA6FD5D502C023F001C022F0E2
:10096000010E016EF0EF06F08D6B8C6B8D5103085C
:100970000BE31F508C25E96E20508D21EA6EEF6A43
:100980008C2BD8B48D2BF2D7BAEF06F0030E8D5F07
:1009900009E3EA6A8D0EE96EEF5004E001D000D061
:1009A000EF2EFDD7000C9451016A935D03E293C0D2
:1009B00000F00CD0006A080E956F93370036945102
:1009C000005CD8B0006E0136952FF7D7000C200ED2
:1009D0008EA9300E8F6F8DC000F08DAF07D0001E36
:1009E000002A00C08DF02D0E8F6F8E8F01508DC0AC
:1009F00093F0640E946FD7DF00C08DF0300E0124A9
:100A0000906F8DC093F00A0E946FCDDF300E0024EE
:100A1000926F300E0124916F8FC000F08EA702D02C
:100A20008EAF8E958EB90BD08EAF22D08EB520D0E2
:100A300000C090F08EB31CD000C091F019D0300EE1
:100A4000905D16E100C090F0200E8F6F8EA704D04D
:100A50008E958E838EAF8E93300E915D09E100C02E
:100A600091F0200E906F8EA7F7D78E938EAF8E9158
:100A70008EA504D08F519EA8FED7AD6E8EA304D054
:100A800090519EA8FED7AD6E8EA104D091519EA824
:100A9000FED7AD6E92519EA8FED7AD6E01EF06F067
:100AA000EACF96F0E9CF95F08F39F009916F912751
:100AB000E20F926F320F946F8F510F0B9227922794
:100AC0009427E90F936F932793278E390F0B932762
:100AD000942793379437941F94378E510F0B942794
:100AE0009137070E906F0A0E93079427FDE3920744
:100AF0009327FDE391079227FDE390079127FDE3FC
:100B0000EA6A900EE96E070E9515959DE926940EFA
:100B1000E95CD8B4958DEF50006E08E195BD06D024
:100B200095B90CD095B702D0200E03D09587959932
:100B3000300E002600509EA8FED7AD6EEE5095AD4B
:100B4000E6D716EF06F001508EC093F0640E946F56
:100B50002ADF00C08EF00150300E07E18FA30DD0C8
:100B60008FB70BD08FB9200E03D08F978F998F81BD
:100B7000012601509EA8FED7AD6E8EC093F00A0EDE
:100B8000946F11DF00C08EF00150300E06E18FB778
:100B900009D08FA107D08FB9200E012601509EA841
:100BA000FED7AD6E300E8E278E519EA8FED7AD6E4D
:100BB000000C8C6B256A246A255003080CE31F5037
:100BC0002424E96E20502520EA6EEF508C27242A39
:100BD000D8B4252AF1D78CC001F039EF06F08C6B20
:100BE0008C5167EC00F08C2B006E00509EA8FED755
:100BF000AD6E150E8C5DF4E121C08DF01F0E8E6F71
:100C0000E6D6170E8D6F8D5167EC00F08D2B006EC0
:100C100000509EA8FED7AD6E220E8D5DF4E1100E41
:100C2000E96E23C08FF022C08EF03AD73E0E9EA808
:100C3000FED7AD6E200E9EA8FED7AD6E256A246A43
:100C40002550030815E31F502424E96E2050252069
:100C5000EA6EEFCF8CF08CC08EF01B0E8F6F73DFBF
:100C6000200E9EA8FED7AD6E242AD8B4252AE8D738
:100C7000A0D701C08CF08D6B8D5188EC00F08D2BCE
:100C8000006E00509EA8FED7AD6E060E8D5DF4E19D
:100C90008CC08EF01B0E8F6F56DF080E8E6F8E513C
:100CA00088EC00F08E2B006E00509EA8FED7AD6E33
:100CB0001A0E8E5DF4E1000CF29CF29EF2BEFDD79E
:100CC000256A246A2550030819E31F502424E96E7D
:100CD00020502520EA6E81CFEFFF23C08CF08C2BB3
:100CE0008C07D8B404D0FF0E8D6F50DEF9D722C028
:100CF0008DF04CDE242AD8B4252AE4D770DFF29C8C
:100D0000F29EF2BEFDD7C2EF06F0F29CF29EF2BE5A
:100D1000FDD704EE00F081CFEEFF000000000000E0
:100D200000000000EAA6F7D723C08CF08C2B8C07BC
:100D3000D8B404D0FF0E8D6F29DEF9D722C08DF014
:100D400025DE4DDFF29CF29EF2BEFDD7CCEF06F021
:100D5000F29CF29EF2BEFDD704EE00F081CFEEFFD2
:100D6000EAA6FCD73CDFF29CF29EF2BEFDD7D1EFA3
:100D700006F0FAD5FF0E936E235203E122500608C7
:100D800002E29AD70ED0235203E12250010805E275
:100D9000236A020E226EB9D704D0236A010E226E96
:100DA000D7D7F5EF06F0FF0E936E256A246AC00EC2
:100DB000F212F286F2982550030801E3FCD7F2966E
:100DC0000EDFF8EF06F08B6B9EAAFED7AECF8AF04F
:100DD0008A510D080EE18B6B8D6B260E8C6F82D4C1
:100DE000015206E0215201E1C4D7212C01D0DBD70A
:100DF00012D08B518B2B036A260FE96E000E032055
:100E0000EA6E8AC0EFFF036A8B51260FE96E000E6F
:100E10000320EA6EEF6A8A517908D6E131EF07F0D4
:100E2000F86AD09E0D8EEA6AE96AB8862A0EAF6E1D
:100E3000000EB06EA60EAC6E900EAB6EC150C00B25
:100E40000F09C16E070EB46E186A196A1F6A040E84
:100E5000206E216A226A236A246A256ACEEF00F096
:040E6000B2D7030002
:020000040030CA
:0E000000200C1E1E008381000FC00FE00F4079
:00000001FF
;PIC18F4550
